:020000040800F2
:100000000808002099010008290A0008BF08000814
:10001000C3080008D5050008031E00080000000002
:100020000000000000000000000000002112000895
:10003000D905000800000000CD0F0008F1130008EA
:10004000B3010008B3010008B3010008B3010008C0
:10005000B3010008B3010008B3010008B3010008B0
:10006000B3010008B3010008B3010008B3010008A0
:10007000B3010008B3010008B3010008B301000890
:10008000B3010008B3010008B3010008B301000880
:10009000B3010008B3010008B3010008B301000870
:1000A000B3010008B3010008B3010008B301000860
:1000B000B301000895160008B3010008B301000859
:1000C000B3010008B3010008B3010008B301000840
:1000D000B3010008691B0008B3010008B301000860
:1000E000B3010008B3010008B301000800F002F8F2
:1000F00000F043F80AA090E8000C82448344AAF17F
:100100000107DA4501D100F038F8AFF2090EBAE87C
:100110000F0013F0010F18BFFB1A43F0010318473B
:10012000002B0000202B0000103A24BF78C878C1B3
:10013000FAD8520724BF30C830C144BF04680C60ED
:10014000704700000023002400250026103A28BF35
:1001500078C1FBD8520728BF30C148BF0B60704739
:100160001FB500F04FF904000020002101F0EAFE65
:10017000401C60601FBD10B510BD00F01EF9114697
:10018000FFF7EEFF01F066FE00F04EF903B4FFF753
:10019000F2FF03BC00F092F9094880470948004784
:1001A000FEE7FEE7FEE7FEE7FEE7FEE7FEE7FEE727
:1001B000FEE7FEE704480549054A064B7047000084
:1001C000F5130008ED0000080802002008080020D0
:1001D000080400200804002070B5064600F02EF840
:1001E0000468054630460A22002100F02BF82C60F6
:1001F00070BD4FF000020429C0F0128010F0030C13
:1002000000F05A80CCF1040CBCF1020F18BF00F8CA
:10021000012BA8BF20F8022BA1EB0C0100F04CB879
:100220005FEAC17C24BF00F8012B00F8012B48BF16
:1002300000F8012B704770477047704700487047BF
:10024000A80100202DE9F04791460F46804604465C
:10025000002614F8015B2DB100F058F80068405DED
:10026000C007F6D12B2D02D02D2D18D0641E4A4682
:100270003946204600F052F827B13968A14201D131
:10028000C7F800804FF0020471050BD540420028EA
:1002900003DDFFF7D3FF0460A007BDE8F08746F455
:1002A0008066E4E70028F8DAFFF7C8FF04606FF023
:1002B0000040F2E74FF0000200B513469446964620
:1002C000203922BFA0E80C50A0E80C50B1F1200169
:1002D000BFF4F7AF090728BFA0E80C5048BF0CC017
:1002E0005DF804EB890028BF40F8042B08BF704775
:1002F00048BF20F8022B11F0804F18BF00F8012BE7
:100300007047000000487047A801002010B500F0B9
:1003100079F8001D10BD00BF2D1C00002DE9F05F15
:10032000824615468B4600270AF10104B94600783B
:10033000302801D09DB113E014F8010B0127782873
:1003400003D0582801D045B10AE00DB1102D07D1D6
:10035000002714F8010B102502E0082500E00A250B
:100360000026B0460EE005FB080005FB06F101275C
:100370001FFA80F801EB1046B6F5803F00D3B9466E
:1003800014F8010B294600F041F80028EBDABBF124
:10039000000F05D00FB1641E00E05446CBF80040BA
:1003A000B9F1000F06D0FFF749FF02210160C81E16
:1003B000BDE8F09F48EA0640FAE77546FFF7A2FF5E
:1003C000AE4605006946534620F00700854618B042
:1003D00020B5FFF7EFFEBDE820404FF000064FF0DC
:1003E00000074FF000084FF0000B21F00701AC466A
:1003F000ACE8C009ACE8C009ACE8C009ACE8C00989
:100400008D46704700487047C80100203A2800D246
:10041000303820F02002412A01D3A2F1370088426F
:1004200001D34FF0FF30704710B50446AFF30080A2
:100430002046BDE81040FFF7A9BE00004FF0013C88
:1004400050F8042B51F8043B9A4221D1A2EB0C0343
:10045000934313EACC1317D150F8042B51F8043B03
:100460009A4215D1A2EB0C03934313EACC130BD1A0
:1004700050F8042B51F8043B9A4209D1A2EB0C032B
:10048000934313EACC13DBD04FF00000704700BF5A
:10049000D01A01BAB1FA81F101F0180122FA01F083
:1004A000CB40C1F12001DBB2C0B2C01A2CFA01F37B
:1004B000D11A914311EAC311E6D1704701491820BE
:1004C000ABBEFEE7260002007047000010B500201A
:1004D0003D4908604FF480513C4800F0DEF90128A6
:1004E00001D0012000E00020394908804FF400418C
:1004F000364800F0D2F9012801D0012000E00020A8
:10050000334948800421314800F0C7F9012801D05F
:10051000012000E000202E49888008212B4800F0AF
:10052000BCF9012801D0012000E000202849C88042
:100530001021264800F0B1F9012801D0012000E087
:100540000020234908812021204800F0A6F9012835
:1005500001D0012000E000201D49488140211B48B6
:1005600000F09BF9012801D0012000E0002018498B
:1005700088818021154800F090F9012801D00120E0
:1005800000E000201249C8814FF400610F4800F0DC
:1005900084F9012801D0012000E000200C490882E4
:1005A00000240DE00A4830F81400012807D14FF06C
:1005B0007E510548006801F0DBFC03490860641CBB
:1005C000082CEFDD10BD000058000020000801409D
:1005D000EA00002000BFFEE7704700B5034603E0D5
:1005E0004FF47A7000F005F8181EA3F10103F7D15B
:1005F00000BD00EBC001C9004FF0E02251610021B5
:1006000091610521116100BF4FF0E021096901F4FA
:1006100080310029F8D004214FF0E02211617047A9
:1006200000B587B00121042000F080FD01210846BB
:1006300000F06CFD04208DF81B000320ADF81800BD
:100640008DF81A0006A9214800F09CF84FF0804070
:1006500001F052F90020ADF81200ADF80E004FF68F
:10066000FF70ADF810000020ADF80C008DF81400FC
:1006700003A94FF0804001F025FA0020ADF80000FA
:100680000620ADF808000020ADF8020069464FF0E2
:10069000804001F0C9F80420ADF800000620ADF854
:1006A00008000020ADF8020069464FF0804001F0DC
:1006B000BBF800231A4603214FF0804001F07FF879
:1006C0000121880701F06FF807B000BD0008014064
:1006D00000B587B00121082000F028FD0121042089
:1006E00000F014FD04208DF81B00C020ADF81800A8
:1006F00003208DF81A0006A9204800F043F820488E
:1007000001F0FAF80020ADF81200ADF80E004FF637
:10071000FF70ADF810000020ADF80C008DF814004B
:1007200003A9174801F0CEF9684601F0D3F800207C
:10073000ADF800000620ADF808000020ADF802007A
:1007400069460F4801F070F80420ADF8000006205B
:10075000ADF808000020ADF802006946084801F035
:1007600063F800231A460321054801F028F8012107
:10077000034801F018F807B000BD0000000C01406C
:10078000000800402DE9F041024600250026002027
:1007900000230024002791F803C00CF00F0591F806
:1007A00003C00CF0100CBCF1000F03D091F802C094
:1007B0004CEA050591F800C0BCF1000F31D0146877
:1007C00000202BE04FF0010C0CFA00F3B1F800C050
:1007D0000CEA03069E4220D183004FF00F0C0CFA66
:1007E00003F7BC4305FA03FC4CEA040491F803C088
:1007F000BCF1280F06D14FF0010C0CFA00FCC2F836
:1008000014C00AE091F803C0BCF1480F05D14FF0C5
:10081000010C0CFA00FCC2F810C0401C0828D1D30F
:100820001460B1F800C0BCF1FF0F34DD5468002043
:100830002EE000F1080C4FF0010808FA0CF3B1F8B3
:1008400000C00CEA03069E4221D183004FF00F0C3A
:100850000CFA03F7BC4305FA03FC4CEA040491F8D4
:1008600003C0BCF1280F05D100F1080C08FA0CF800
:10087000C2F8148091F803C0BCF1480F07D100F111
:10088000080C4FF0010808FA0CF8C2F81080401C60
:100890000828CED35460BDE8F0810246002093685A
:1008A0000B400BB1012000E0002070474161704710
:1008B000016170470AB1016100E04161704700BF0A
:1008C000FEE700BFFEE7000010B54FF400510448FA
:1008D000FFF7EEFF4FF480510148FFF7E7FF10BD2F
:1008E000000C014010B54FF400610448FFF7E0FF31
:1008F0004FF480610148FFF7D9FF10BD000C0140A3
:1009000008B50121082000F011FC10208DF803002B
:100910004FF47050ADF8000003208DF802006946D6
:100920000148FFF72FFF08BD000C014070B54FF0E4
:10093000804000F065FF044616480068201A1649FA
:10094000086008460068B0F5004F05DD08460068FD
:10095000A0F5803008600AE00F48006810F5004FED
:1009600005DA0D48006800F580300B490860094839
:1009700004600948006801F09BFC0646074901F045
:1009800065FB0546064901F0DFFC0649086008469C
:10099000006870BD34000020440000200000DC43EB
:1009A0000080BB453C00002070B5194800F028FFCE
:1009B000044618480068201A17490860084600686D
:1009C000B0F5004F05DD08460068A0F580300860EE
:1009D0000AE01148006810F5004F05DA0E4800687B
:1009E00000F580300C4908600A4804600A48006835
:1009F00001F05EFC0646094901F028FB054608495E
:100A000001F0A2FC074908600846006870BD0000BC
:100A10000008004038000020480000200000DC43AF
:100A20000080BB45400000207047000070B50021E9
:100A300000230F22C47804B3154C246804F4E06446
:100A4000C4F5E064210AC1F10403CA40447804FA01
:100A500003F184781440214309010E4C0678A15516
:100A6000047804F01F050124AC4005786D11AD0039
:100A700005F1E025C5F8004109E0047804F01F0500
:100A80000124AC40044D0678761145F8264070BD2F
:100A90000CED00E000E400E080E100E002490143E9
:100AA000024A1160704700000000FA050CED00E0FA
:100AB00070B500240EE00021204600F0F4F8002577
:100AC00004E0002000F09FF9681CC5B2802DF8DB1F
:100AD000601CC4B2082CEEDB70BD000008B501211B
:100AE000082000F023FB14208DF8030003208DF86C
:100AF00002004FF48070ADF8000069460A48FFF725
:100B000041FE4FF40070ADF8000069460648FFF75B
:100B100039FE012211020448FFF7CCFE01225102E6
:100B20000148FFF7C7FE08BD000C014070B505463F
:100B3000002419E080202041284008B1012000E075
:100B4000002002464FF400710E48FFF7B3FE012269
:100B500011020C48FFF7AEFE00224FF480710948E5
:100B6000FFF7A8FE601CC4B2082CE3DB01221102CF
:100B70000448FFF79FFE00224FF480710148FFF701
:100B800099FE70BD000C014010B5012251020A48C7
:100B9000FFF790FE012211020748FFF78BFE0022AB
:100BA0004FF400710448FFF785FE00224FF4807176
:100BB0000148FFF77FFE10BD000C014010B5002278
:100BC0004FF400710648FFF775FE01221102044838
:100BD000FFF770FE012251020148FFF76BFE10BDC6
:100BE000000C014070B5002406E0002500E06D1CFB
:100BF000B5F57A7FFBD3641CB4F57A7FF5D3FFF7A4
:100C00006DFFAE2000F0EFF8D52000F0ECF880206A
:100C100000F0E9F8A82000F0E6F83F2000F0E3F843
:100C2000D32000F0E0F8002000F0DDF8402000F0D4
:100C3000DAF8A12000F0D7F8C82000F0D4F8DA20C4
:100C400000F0D1F8122000F0CEF8812000F0CBF8AF
:100C5000CF2000F0C8F8D92000F0C5F8F12000F04E
:100C6000C2F8DB2000F0BFF8302000F0BCF8A42070
:100C700000F0B9F8A62000F0B6F88D2000F0B3F827
:100C8000142000F0B0F8AF2000F0ADF8FFF710FF2F
:100C900070BD10B50246012000E050430B1EA1F1CB
:100CA0000101FAD110BD70B505460C4645F0B00003
:100CB00000F099F8102141EA141000F094F804F0C3
:100CC0000F0000F090F870BD2DE9F04105460E468A
:100CD0001746721ED206110E6A1E5206100EFFF73C
:100CE000E2FF002409E0A7F12001134A02EB011101
:100CF000085D00F088F8601CC4B2082CF3DB721E9B
:100D0000D206110E6A1E012303EB4202D0B2FFF796
:100D1000CAFF00240BE0A7F12001074A02EB0112F1
:100D200004F10801505C00F06EF8601CC4B2082C9D
:100D3000F1DBBDE8F08100002E2600082DE9F04728
:100D400080460E4617461D46002415E0281B411E0E
:100D50000A20FFF79EFFB7FBF0F00A21B0FBF1F28B
:100D600001FB120000F130093019C1B24A46404679
:100D7000FFF7AAFF601CC4B2AC42E7DBBDE8F08716
:100D80002DE9F0478146884615461E46002D06DBB4
:100D90002B2241464846FFF797FF2F4605E02D22BC
:100DA00041464846FFF790FF6F42002417E0301B92
:100DB000411E0A20FFF76DFFB7FBF0F00A21B0FBE0
:100DC000F1F201FB120000F1300A08EB0400401CB4
:100DD000C1B252464846FFF777FF601CC4B2B44226
:100DE000E5DBBDE8F08710B50446FFF7CDFE7820BF
:100DF000FFF79CFE0020FFF799FE2046FFF796FEC6
:100E0000FFF7DCFE10BD10B50446FFF7BDFE7820ED
:100E1000FFF78CFE4020FFF789FE2046FFF786FE95
:100E2000FFF7CCFE10BD2DE9F84F04460F46904663
:100E30004146384601F086FB05462946206801F008
:100E400083FA00902946206901F092F82061D4E9E4
:100E5000040101F045FB01D260692061606980F006
:100E6000004A5046216901F03BFB03D2606980F0E3
:100E7000004020612169606801F066FA83462846D7
:100E8000E16801F05FFB8246A16801F05DFA8146EE
:100E9000E5605946009801F06BF88246494601F03A
:100EA00067F806463046A16901F01AFB00D2A66930
:100EB000A06980F0004A3146504601F011FB02D291
:100EC000A06980F000463046BDE8F88F4FF08041C1
:100ED00001604FF07F514160044981600021C16091
:100EE000016103494161816170470000CDCCCC3D77
:100EF00000806D4400B589B00121022000F006F9A0
:100F00000121082000F012F918208DF82300032099
:100F1000ADF820008DF8220008A92A48FFF732FC1E
:100F2000294800F0E9FC0020ADF81A00ADF81600E1
:100F300040F2E730ADF818004720ADF8140000206B
:100F40008DF81C0005A9204800F0BCFD01A800F0A8
:100F50007EFD6020ADF804000020ADF80C000120FB
:100F6000ADF806000020ADF80A0001A9164800F00F
:100F7000C9FC01A9144800F01FFD0821124800F027
:100F800011FD0821104800F055FD01210E4800F028
:100F9000FBFB012211460C4800F0A5FC1D208DF83A
:100FA000000001208DF801008DF802008DF803008B
:100FB0006846FFF73BFD0121034800F0F4FB09B050
:100FC00000BD0000000C014000040040704700001C
:100FD0002DE9F05F054600262F480168284601F0FC
:100FE000B3F982462C48C168284600F0C1FF2A495F
:100FF000C8600A465168506901F028F8044626493D
:10100000C868214601F06CFA02D22348C4600BE0A4
:1010100084F000472048C168384601F061FA03D2E5
:1010200084F000401C49C8601B4AD168506801F038
:101030008BF9834618480169284601F083FA8046F7
:1010400015498868414601F07FF981464946504676
:1010500000F08EFF064610484169304601F040FA24
:1010600002D20D4846690CE00B48406980F0004709
:101070003146384601F034FA03D20748406980F01F
:10108000004605480561304601F0D6F8034908607E
:1010900008460068BDE8F09F88000020300000206E
:1010A0000748084908604FF07C5048604FF0814085
:1010B00088600020C86008610348486170470000EC
:1010C0000000B8418800002000003E4300200C4989
:1010D000088000BF0EE00B4931F810100A4A32F9BF
:1010E0001020074BB3F9003001FB023109B2044A6A
:1010F0001180401C0828EEDD0148B0F9000070475F
:101100006E000020EA0000205C00002029B1064AA1
:10111000D2690243044BDA6104E0034AD269824394
:10112000014BDA61704700000010024029B1064A05
:1011300092690243044B9A6104E0034A9269824334
:10114000014B9A61704700000010024030B5002149
:101150000022002400232D4D6D6805F00C0121B103
:10116000042905D0082923D105E0294D056022E096
:10117000274D05601FE0254D6D6805F47012234D65
:101180006D6805F48034022505EB92421CB9214DAF
:10119000554305600BE01D4D6D6805F400351DB12C
:1011A0001C4D5543056002E0194D5543056002E0B2
:1011B000174D056000BF00BF144D6D6805F0F001CC
:1011C0000909154D6B5C0568DD4045600F4D6D6884
:1011D00005F4E061090A104D6B5C4568DD408560EF
:1011E0000A4D6D6805F46051C90A0B4D6B5C45688A
:1011F000DD40C560054D6D6805F44041890B074D24
:101200006B5CC568B5FBF3F5056130BD00100240AD
:1012100000127A0000093D000000002010000020AC
:101220007047000008B501210420FFF77FFF04206C
:101230008DF8030049F6FC00ADF8000003208DF89E
:10124000020069460148FFF79DFA08BD0008014009
:1012500000B587B001218803FFF768FF0121042052
:10126000FFF764FF18208DF81B004FF40070ADF8F5
:10127000180003208DF81A0006A92148FFF782FA0A
:1012800048208DF81B004FF48060ADF81800032053
:101290008DF81A0006A91A48FFF774FA4FF4165091
:1012A00002900020ADF814000C20ADF812000020D0
:1012B000ADF81000ADF80E00ADF80C0002A9114811
:1012C00000F02EFD012240F225510E4800F003FDF2
:1012D0004FF4A060FFF7E2FB25208DF80400012009
:1012E0008DF807008DF805008DF8060001A8FFF7BE
:1012F0009DFB0121034800F0B8FC07B000BD0000D1
:10130000000801400038014010B500F001F810BDA0
:101310000CB50020019000903348006840F4803004
:101320003149086000BF3048006800F40030009088
:101330000198401C0190009818B90198B0F5A06F71
:10134000F1D12948006800F4003010B1012000906C
:1013500001E0002000900098012843D12348006854
:1013600040F01000214908600846006820F00300A2
:1013700008600846006840F0020008601A484068AB
:10138000194948600846406848600846406840F48B
:10139000806048600846406820F47C104860084639
:1013A000406840F4E81048600846006840F08070EB
:1013B000086000BF0C48006800F000700028F9D0F9
:1013C0000948406820F00300074948600846406823
:1013D00040F00200486000BF0348406800F00C0085
:1013E0000828F9D10CBD0000001002400020024086
:1013F0007047000010B51348006840F00100114923
:10140000086008464068104908400E494860084690
:1014100000680E4908400B4908600846006820F43F
:10142000802008600846406820F4FE0048604FF4C1
:101430001F008860FFF768FF4FF0006004490860F4
:1014400010BD0000001002400000FFF8FFFFF6FE94
:1014500008ED00E0F0B50C46154600220021068C90
:101460004FF6FE773E400684028B018C4FF60C76D9
:1014700032407E1C06EA03162E433243104EB04221
:101480000ED0104EB0420BD0B0F1804F08D00E4EAF
:10149000B04205D00D4EB04202D00D4EB04206D142
:1014A0004FF6FD76314044F00106314305E04FF63A
:1014B000F576314044F00106314302830184F0BDEA
:1014C000002C0140003401400004004000080040AE
:1014D000000C0040F0B50C46154600220021002605
:1014E000078C4FF6EF7C07EA0C070784028B018C10
:1014F0004FF6FF7707EA041640F6FF473A404FF6EB
:10150000FF7707EA03373A434FF6FF7707EA0527E5
:101510003A43114FB8420ED0104FB8420BD0B0F141
:10152000804F08D00E4FB84205D00E4FB84202D0BF
:101530000D4FB84206D14FF6DF77394046F010071D
:10154000394305E04FF65F77394044F010073943DF
:1015500002830184F0BD0000002C014000340140F2
:101560000004004000080040000C0040F0B50C46AC
:101570001546002200210026078C4FF6FF6C07EA73
:101580000C070784828B018C4FF6FF7707EA04264D
:101590004FF60C773A404FF6FF7707EA03172F43D1
:1015A0003A43114FB8420ED0104FB8420BD0B0F1B1
:1015B000804F08D00E4FB84205D00E4FB84202D02F
:1015C0000D4FB84206D14FF6FF57394046F48077A9
:1015D000394305E04FF2FF57394044F480773943EF
:1015E00082830184F0BD0000002C014000340140E2
:1015F0000004004000080040000C0040F0B50C461C
:101600001546002200210026078C4EF6FF7C07EAD3
:101610000C070784828B018C4FF6FF7707EA0436AC
:1016200040F6FF473A404FF6FF7707EA05273A436F
:101630004FF6FF7707EA03373A43114FB8420ED00F
:10164000104FB8420BD0B0F1804F08D00E4FB842C7
:1016500005D00E4FB84202D00D4FB84206D14DF61C
:10166000FF77394046F48057394305E047F6FF5786
:10167000394044F48057394382830184F0BD00002F
:10168000002C0140003401400004004000080040EC
:10169000000C004010B50121314800F0B4F80128D9
:1016A0005CD130480078401C2E490870084600780C
:1016B0000A284FDB00200870FFF738F9FFF774F9AC
:1016C00000212948006800F00BFE0CD22648006873
:1016D00080F000442548214602682548FFF7A3FB17
:1016E0002449086008E0214802681F480168204832
:1016F000FFF799FB1F49086000211F48006800F0B0
:10170000EFFD0CD21C48006880F000441B482146C5
:1017100002681B48FFF787FB1A49086008E0174872
:101720000268154801681648FFF77DFB15490860F7
:101730001048006800F09CFD84B22146084800F083
:1017400090F91048006800F093FD84B221460448E7
:1017500000F089F90121024800F022F810BD0000D4
:101760000004004054000020140000203C00002031
:10177000A00000204C0000201800002040000020A5
:10178000BC0000205000002021B1028842F08002FD
:10179000028004E002884FF67F731A40028070478F
:1017A000CA430282704721B1028842F001020280DE
:1017B00004E002884FF6FE731A4002807047F0B5CD
:1017C0000C4615461E460021002200230189028B8B
:1017D000038C4FF6F877394021434FF6FC473A40E7
:1017E00040F201173A434FF6DD773B404FF6FF7763
:1017F00007EA06172F433B43018102830384F0BDB0
:101800000146888C704730B5024600200023002432
:10181000158A05EA0103958905EA010413B10CB1A3
:10182000012000E0002030BD70B505460C4624487C
:1018300085420ED0234885420BD0B5F1804F08D0A9
:101840002148854205D02148854202D02048854262
:1018500000D100E000BF208850B92389A2886188A8
:101860002846FFF7F7FDE188284600F0FFF825E05D
:10187000208804280AD12389A28861882846FFF796
:1018800029FEE188284600F0FAF817E020880828A9
:101890000AD12389A28861882846FFF767FEE1887C
:1018A000284600F0F9F809E02389A28861882846D3
:1018B000FFF7A4FEE188284600F0F7F870BD0000AD
:1018C000002C0140003401400004004000080040AA
:1018D000000C004000210180418001218180002115
:1018E000C180018170471AB183890B43838102E073
:1018F00083898B438381704701894FF6F8721140C9
:101900000181704770B5002400220023058C4FF63A
:10191000FF6635400584028C8388848B4FF68F7573
:101920002C404FF6FC752C400D882C434FF6FF558C
:101930002A400D894FF6FF7606EA05252A434D8891
:1019400006EA05252A43154DA84202D0144DA842A7
:101950001DD14FF2FF752A404D894FF6FF7606EAFA
:1019600005252A434FF6FF352A408D8806EA0525CE
:101970002A434EF6FF752B404DF6FF752B408D899F
:1019800006EA05152B43CD8906EA05152B4383800E
:101990008483CD888587028470BD0000002C0140BF
:1019A000003401400A460021818B4FF6F77319403D
:1019B000114381837047000070B50022002300248A
:1019C000058C4EF6FF7635400584038C8488828B27
:1019D00048F6FF752A404FF6FF452A400D884FF61E
:1019E000FF7606EA05252A434DF6FF752B400D8943
:1019F00006EA05352B434D8806EA05352B430B4D8A
:101A0000A84202D00A4DA84208D14BF6FF752C40DF
:101A10008D894FF6FF7606EA85152C4384808283F4
:101A2000CD88A0F84050038470BD0000002C014018
:101A3000003401400A460021818B4FF2FF731940A8
:101A40004FF6FF7303EA0223194381837047002195
:101A5000018041808180C180018141818181C1817A
:101A6000704781877047A0F840107047028B4FF68F
:101A7000F3731A400283028B0A4302837047028B7E
:101A80004FF2FF331A400283028B4FF6FF7303EAD3
:101A900001231A4302837047828B4FF6F3731A4077
:101AA0008283828B0A4382837047828B4FF2FF339B
:101AB0001A408283828B4FF6FF7303EA01231A4395
:101AC00082837047002202881D4B98420ED01D4B26
:101AD00098420BD0B0F1804F08D01B4B984205D0F4
:101AE0001A4B984202D01A4B984204D14FF68F738A
:101AF0001A404B881A43174B984207D0164B98420E
:101B000004D04FF6FF431A40CB881A4302808B88DB
:101B100083850B8803850A4B98420BD0094B98426A
:101B200008D00E4B984205D00D4B984202D00D4B79
:101B3000984201D10B7A038601238382704700000B
:101B4000002C014000340140000400400008004027
:101B5000000C004000100040001400400040014014
:101B6000004401400048014010B540F22551314881
:101B700000F087F801285BD12E4800F03DF9C4B28F
:101B80002D48007860B9402C4CD101202A490870BA
:101B900000202A49087020212948FEF72AFB41E04D
:101BA0002548007801281FD12C2C10D10020244971
:101BB000224A127888540846FEF70EFB2149086035
:101BC00000201E49087002201B4908702AE01B48AB
:101BD00000781F2826D2194801780078401C174A3F
:101BE0001070174844541DE013480078022809D1AA
:101BF0000D2C03D103201049087013E000200E497A
:101C000008700FE00C48007803280BD10A2C06D18D
:101C100000200949087001200B49087002E00020EB
:101C20000549087040F22551024800F00FF800BF46
:101C300010BD000000380140840000208500002015
:101C4000880100207C0000207800002010B50022D0
:101C5000002340F66A14A14200D100BF0A120124F9
:101C60009440A3B2DC43048010BD21B1828942F4C8
:101C70000052828104E082894DF6FF731A4082810E
:101C8000704770B50246002400230025002040F66E
:101C90006A16B14200D100BFC1F3421501F01F0323
:101CA000012606FA03F3012D02D19689334006E09E
:101CB000022D02D1168A334001E0968A33400C127D
:101CC000012606FA04F41688344013B10CB1012041
:101CD00000E0002070BDF0B503460024002600257A
:101CE000002040F66A17B94200D100BF1846C1F380
:101CF000421401F01F06012707FA06F5012C01D155
:101D00000C3004E0022C01D1103000E014301AB184
:101D100007682F43076002E00768AF430760F0BD24
:101D20002DE9F04786B005460E460024A24600BFC6
:101D3000A1460027B08900B100BF2F462C8A4CF67F
:101D4000FF700440F08804432C82AC894EF6F310F7
:101D50000440B08831890843718908430443AC8149
:101D6000AC8A4FF6FF400440B0890443AC8201A81E
:101D7000FFF7ECF91F48874202D1DDF810A001E01F
:101D8000DDF80CA0A88900F4004040B10AEBCA00BD
:101D900000EB0A1031684900B0FBF1F807E00AEBEC
:101DA000CA0000EB0A1031688900B0FBF1F864202A
:101DB000B8FBF0F004012009642101FB1089A88917
:101DC00000F4004040B1322000EBC900B0FBF1F05C
:101DD00000F00700044308E0322000EB0910642102
:101DE000B0FBF1F000F00F0004432C8106B0BDE819
:101DF000F08700000038014001468888C0F30800E1
:101E0000704700BFFEE7000010B500210D480068D4
:101E100000F0DEF90CD00C48B0F9000000F048FAF0
:101E2000044608480168204600F010F90749086098
:101E300006480068FFF7CCF8044600F039FA044978
:101E4000086010BD580000206E00002070000020C7
:101E500074000020FEF7C6FEFFF74CF8FEF7E0FB2B
:101E6000FEF736FCFEF74CFD2F48FFF72FF82F4802
:101E7000FFF72CF8FFF714F9FEF726FDFEF732FD09
:101E8000FFF7D0F9FFF7E4F94CE0FEF71FFBFFF78F
:101E90001DF90646FFF7B8FF054600F0CDF90446E8
:101EA0000523224601210320FEF76AFF4FF0804000
:101EB000FFF7A6FC054605232A4607210120FEF769
:101EC0003DFF1B48006800F0D3F9054605232A466C
:101ED00001210846FEF732FF1648006800F0C8F9F5
:101EE000054605232A4601210220FEF727FF124856
:101EF000006800F0BDF9054605232A4601210420AB
:101F0000FEF71CFF0820FEF768FB04F5967000F052
:101F1000CFF90A490860C4F5967000F0C9F908497C
:101F2000086000BFB1E70000A0000020BC00002056
:101F30003C000020400000204C0000201400002045
:101F40001800002010B500290AD00878002807D012
:101F500005487844FEF772FA002801D0002010BD31
:101F60000248784410BD0000EE0C0000E60C0000B2
:101F700090EA010F48BF81F0004100F1EA82421A65
:101F80003CBF801A89184FEAD0524FF07F4C1CEAB0
:101F9000410FA2EBD15318BF9CEA026F00F03B80C7
:101FA0004FF0004C4CEA00204CEA012121FA03FCDE
:101FB00010EB0C0C1ED202F1FF325FEA1C2040EB4A
:101FC000C25038BF70471CF07F0F4FEA400C18BF5B
:101FD000BCF17F4F38BF7047C3F12003994008BF61
:101FE00020F00100BCF17F4F38BF7047A0F1C04026
:101FF00000F071BA4FEA3C00000A40EBC25028BF23
:102000001CF0FF0F4FEA400CE6D018BFBCF17F4F29
:1020100038BF7047EAE79CEA026F05D010EA5C0F10
:1020200008BF00F00040704710B500F00EFA00BF86
:1020300064FBBE3E401058BFC0F14040491058BF3D
:10204000C1F140418142EFF3008070474FF47F0CB3
:102050001CEAD0121EBF1CEAD11392EA0C0F93EABD
:102060000C0F00F0858090EA010F48BF42F48072A7
:1020700040F4000C41F400002CF07F4120F07F4040
:1020800000B58142A2EB03020FF2081CACEB504EEC
:10209000C0F100009EF800E04FEA4E0E00FB0EFC7F
:1020A00038BF49004FEA2C1C02F5FA020CFB0EF374
:1020B0004FEACE1E4FEA112C4FEAC1210EEB635EB0
:1020C00042EB22420EFB0CFC4FEA1C5300FB0311B7
:1020D0004FEA112C4FEA01310EFB0CFC4FEADC4CAD
:1020E00000FB0C11C14228BF09184CEB03335DF80B
:1020F00004EB10EB410143EBC250B2F57C0F38BF4B
:10210000704729D512F0F00F1CBF00F1C04000F05D
:1021100000407047008182838485868788898B8C04
:102120008D8E8F919293959697999A9C9D9FA0A240
:10213000A3A5A7A8AAACAEB0B2B3B5B7B9BCBEC090
:10214000C2C5C7C9CCCED1D4D7D9DCDFE2E6E9EC31
:10215000F0F3F7FAFE0000004FEA400C0CF1807C2F
:10216000BCF17E4F28BF7047B0F1C04000F0B3B95A
:1021700090EA010F0CEAD11348BF42F48072624525
:1021800038BF634507D213F47F0F16D080EA0100F1
:1021900000F00040704710B500F057F9097EFC3E92
:1021A00000F005B880EA010000F00040704780EAC6
:1021B000010000F0004000F08EB912F47F0F04BF60
:1021C0000248704780EA010000F085B90000C07F36
:1021D00050EA010C00F113801CF5000F58BFBCF54C
:1021E000000F01D48842704707D710F5000F58BF81
:1021F00011F5000F15D488427047894270471CF5CD
:10220000000F04D5BCF5000FF7D5814270474FF0A1
:10221000807C1CEB400F38BF1CEB410F01D2814288
:10222000704710B500F011F9922449004FF00050AA
:102230004FF08051FFF7FEBE41000B0ED3F19E021E
:1022400008D950F400034FEA032323FA02F048BFF1
:102250004042704710B500F0F8F800BF4992248062
:10226000002070476FF0004282EA200070470000B3
:10227000C10DD1F19E0206DB4FEA002343F000437B
:1022800023FA02F07047004207D54FEA4001B1F14E
:10229000FE4F02D24FF00000704710B500F0D5F8A5
:1022A00049922480002070476FEA200070470000A8
:1022B00010F0004148BF4042B0FA80F310FA03F238
:1022C000C3F19D030BD051EAC35101EB1220530619
:1022D00038BF704700F1010008BF20F001007047CF
:1022E00050EA010C00F113801CF5000F58BFBCF53B
:1022F000000F01D48842704707D710F5000F58BF70
:1023000011F5000F15D488427047894270471CF5BB
:10231000000F04D5BCF5000FF7D5814270474FF090
:10232000807C1CEB400F38BF1CEB410F01D2814277
:10233000704710B500F089F8922449004FF0005022
:102340004FF08051FFF776BE4FF47F0C1CEAD0129D
:102350001EBF1CEAD11392EA0C0F93EA0C0F00F097
:10236000478090EA010F48BF42F480724FF0004C62
:102370004CEA00204CEA012102EB0302A0FB01130E
:10238000A2F50002002918BF43F001035B0028BF3B
:102390004FEA330342EB22425FEA132C4CEBC2506C
:1023A0002EBFBCEB436FB2F57C0F70474FEA036C56
:1023B000BCF1004F08BF20F00100B2F57C0F38BF20
:1023C00070470BD582F0FF0212F5803FC8BF7047FF
:1023D00000F1C040D8BF00F00040704700F5000C8D
:1023E0005FEA4C0C48BF7047B0F1C04000F073B8D2
:1023F00090EA010F0CEAD11348BF42F480726245A3
:1024000038BF634504D280EA010000F00040704705
:1024100010B500F01AF800BF8900013E00F007B8BF
:1024200000F009B85FEA410C5FEA1C6C08D080EA52
:10243000010000F050B85FEA400C5FEA1C6CF6D176
:102440004FF00040A0F5800070470EF1020E2EF014
:10245000030E5EF8044B244204D44FEA4102B2F169
:102460007F4F11D84FEA4003B3F17F4F0CD80ED104
:102470004FEAD07CB2F17F4F0CEB4C0C0CF1020C0C
:1024800008BF4CEBD17C04E04FF0080C01E04FEAB0
:10249000D17C0CEB4C0324FA03F404F00704B4F1F0
:1024A000040C06D20EEB840CBDE810404CF0010C7D
:1024B0006047DFE80CF0070802024FF00040A0F58B
:1024C000800010BD0846420018BFD2F1807288BF5C
:1024D00000F0004010BDFF2141EAD050C005704718
:1024E00051EA000C00F113801CF5000F58BFBCF539
:1024F000000F01D48142704707D711F5000F58BF74
:1025000010F5000F15D481427047894270471CF5C1
:10251000000F04D5BCF5000FF7D5884270474FF087
:10252000807C1CEB410F38BF1CEB400F01D288426E
:10253000704780EA010081EA000180EA0100FFF7AC
:10254000F8BE000090EA010F48BF81F000413FF55E
:1025500016AD421A04D882F00042A0EB02001144EA
:102560004FEAD0524FF07F4C1CEA410FA2EBD153FF
:1025700018BF9CEA026F4AD04FF0004C4CEA002092
:102580004CEA012121FA03FCB0EB0C0C0FD412F041
:10259000FE0F36D05FEA4C001DD5001240EBC25052
:1025A00038BF70471CF03F0F18BF70470BE0A2F117
:1025B00001025FEA1C2040EBC25038BF70471CF09C
:1025C0007F0F18BF7047C3F12003994014BF401E0E
:1025D00020F00100704780084FEA122308BF7047BF
:1025E000B0FA80FCA2EB0C02CCF1280C60FA0CF0E3
:1025F00093EA122F04BF00EBC25070474FEAC3703A
:102600007047130A5FEADC1008BF7047F6E79CEAE0
:10261000026F04D010EA5C0F08BF0020704710B5AD
:10262000FFF713FF40DFF63E81F0004070470000E7
:10263000000000000000000000000000000000009A
:1026400000F800000000000000333000000000101F
:102650000C06100C0600000000000000000040C046
:102660007840C0784000043F04043F040400007038
:1026700088FC08300000001820FF211E0000F00830
:10268000F000E018000000211C031E211E0000F0D5
:102690000888700000001E2123241927211010161D
:1026A0000E0000000000000000000000000000001C
:1026B00000E018040200000000071820400000029B
:1026C0000418E0000000004020180700000040400F
:1026D00080F0804040000202010F01020200000071
:1026E00000F0000000000101011F010101000000D5
:1026F00000000000000080B070000000000000003A
:1027000000000000000000010101010101010000C2
:102710000000000000000030300000000000000059
:10272000000080601804006018060100000000E04E
:1027300010080810E000000F102020100F000010FB
:1027400010F8000000000020203F20200000007052
:10275000080808887000003028242221300000304A
:102760000888884830000018202020110E00000042
:10277000C02010F8000000070424243F240000F8C3
:102780000888880808000019212020110E0000E0A8
:10279000108888180000000F112020110E0000384A
:1027A0000808C83808000000003F00000000007062
:1027B000880808887000001C222121221C0000E0EB
:1027C00010080810E0000000312222110F00000064
:1027D00000C0C00000000000003030000000000019
:1027E0000080000000000000806000000000000089
:1027F0008040201008000001020408102000404022
:102800004040404040000404040404040400000864
:102810001020408000000020100804020100007019
:1028200048080808F0000000003036010000C03001
:10283000C828E810E0000718272423140B00000024
:10284000C038E0000000203C23020227382008F8AE
:10285000888888700000203F202020110E00C030A2
:10286000080808083800071820202010080008F879
:1028700008080810E000203F202020100F0008F872
:102880008888E8081000203F20202320180008F83E
:102890008888E8081000203F200003000000C030B6
:1028A00008080838000007182020221E020008F837
:1028B00008000008F808203F210101213F200008FE
:1028C00008F8080800000020203F20200000000039
:1028D0000808F8080800C08080807F00000008F821
:1028E00088C028180800203F20012638200008F85A
:1028F000080000000000203F20202020300008F8C1
:10290000F800F8F80800203F003F003F200008F8DA
:1029100030C00008F808203F200007183F00E010F2
:1029200008080810E0000F10202020100F0008F801
:1029300008080808F000203F210101010000E01014
:1029400008080810E0000F18242438504F0008F839
:10295000888888887000203F2000030C3020007099
:102960008808080838000038202121221C00180897
:1029700008F8080818000000203F2000000008F8B0
:1029800008000008F808001F202020201F000878F9
:10299000880000C83808000007380E010000F80859
:1029A00000F80008F800033C0700073C0300081883
:1029B00068808068180820302C03032C30200838E9
:1029C000C800C83808000000203F200000001008A0
:1029D0000808C838080020382621202018000000E8
:1029E00000FE020202000000007F40404000000C98
:1029F00030C000000000000000010638C0000002E6
:102A00000202FE000000004040407F000000000085
:102A100004020202040000000000000000000000A8
:102A200000000000000080808080808080800002A4
:102A30000204000000000000000000000000000090
:102A40008080808000000019242222223F2008F884
:102A5000008080000000003F112020110E000000C7
:102A6000008080800000000E112020201100000056
:102A700000808088F800000E112020103F20000008
:102A8000808080800000001F22222222130000800C
:102A900080F0888888180020203F20200000000057
:102AA000808080808000006B94949493600008F88C
:102AB000008080800000203F210000203F20008017
:102AC0009898000000000020203F20200000000017
:102AD00000809898000000C08080807F000008F887
:102AE000000080808000203F24022D30200000085C
:102AF00008F8000000000020203F20200000808017
:102B0000808080808000203F20003F20003F808028
:102B1000008080800000203F210000203F20000036
:102B2000808080800000001F202020201F008080E7
:102B300000808000000080FFA12020110E00000016
:102B4000008080808000000E112020A0FF80808007
:102B500080008080800020203F21200001000000B4
:102B60008080808080000033242424241900008089
:102B700080E0808000000000001F20200000808096
:102B8000000000808000001F202020103F20808057
:102B900080000080808000010E30080601008080E7
:102BA0000080008080800F300C030C300F0000800C
:102BB0008000808080000020312E0E312000808037
:102BC00080000080808080818E7018060100008067
:102BD0008080808080000021302C22213000000085
:102BE0000000807C020200000000003F4040000026
:102BF0000000FF00000000000000FF0000000002D5
:102C0000027C800000000040403F00000000000601
:102C100001010202040400000000000000000000A6
:102C2000502D000800000020880000002801000846
:102C3000D82D00088800002080070000440100080B
:102C40001001000043000000F8FFFFFF004040407B
:102C5000404040404040414141414140404040406F
:102C6000404040404040404040404040400502021B
:102C700002020202020202020202020202202020DA
:102C80002020202020202002020202020202909036
:102C90009090909010101010101010101010101034
:102CA0001010101010101010020202020202888888
:102CB0008888888808080808080808080808080894
:102CC000080808080808080802020202400000007C
:102CD00000000000000000000000000000000000F4
:102CE00000000000000000000000000000000000E4
:102CF00000000000000000000000000000000000D4
:102D000000000000000000000000000000000000C3
:102D100000000000000000000000000000000000B3
:102D200000000000000000000000000000000000A3
:102D30000000000000000000000000000000000093
:102D40000000000000000000000000000000000083
:102D50000000000001020304010203040607080941
:102D6000020406080000000000000000000000004F
:102D70000000000000000000000000000000000053
:102D80000000000000000000000000000000000043
:102D90000000000000000000000000000000000033
:102DA000000000000000000000000000F8FFFBFF32
:102DB000FDFFFEFF00000200030005000800000008
:102DC0000000000000000000000000000000000003
:082DD0000000000000000000FB
:04000005080000ED02
:00000001FF
